:020000040800F2
:100000005807002035020008F11B000821150008E0
:10001000ED1B00082D040008111D00080000000061
:10002000000000000000000000000000F91B0008B4
:100030003104000800000000F51B0008FD1B00084B
:100040004F0200084F0200084F0200084F0200084C
:100050004F0200084F0200084F0200083D0400084C
:100060004F0200084F0200084F0200084F0200082C
:100070004F0200084F0200084F0200084F0200081C
:100080004F0200084F0200084F0200080000000065
:100090000000000000000000000000004F02000807
:1000A0004F0200084F0200084F0200084F020008EC
:1000B000151C0008211C00084F0200084F02000810
:1000C0004F0200084F0200084F0200084F020008CC
:1000D0004F0200084F0200084F0200080000000015
:1000E000350400084F0200084F020008000000001D
:1000F0000000000000000000000000004F020008A7
:10010000000000004F0200084F0200084F020008E4
:1001100000000000000000000000000000000000DF
:100120004F0200084F0200084F0200084F0200086B
:100130004F02000800000000000000000000000066
:100140000000000000000000000000004F02000856
:100150004F0200084F0200084F0200084F0200083B
:100160004F0200084F0200080000000000000000DD
:10017000000000000000000000000000000000007F
:10018000000000004F020008000000000000000016
:100190004F02000800F002F800F03CF80AA090E8D6
:1001A000000C82448344AAF10107DA4501D100F032
:1001B00031F8AFF2090EBAE80F0013F0010F18BFC3
:1001C000FB1A43F001031847681D0000881D00005A
:1001D000103A24BF78C878C1FAD8520724BF30C873
:1001E00030C144BF04680C60704700000023002445
:1001F00000250026103A28BF78C1FBD8520728BF37
:1002000030C148BF0B6070471FB501F078FE1FBDBD
:1002100010B510BD00F0D0F81146FFF7F5FF01F062
:10022000F9FD00F0EEF803B4FFF7F2FF03BC00F0B5
:10023000F5F800000948804709480047FEE7FEE757
:10024000FEE7FEE7FEE7FEE7FEE7FEE7FEE7FEE786
:1002500004480549054A064B70470000011C000888
:10026000950100085801002058070020580300207D
:100270005803002053EA020C00F069802DE9F04B8E
:100280004FF00006002B1FBFB3FA83F503FA05F405
:1002900024FA05F65E4012BF1643B2FA82F502FA5E
:1002A00005F4C5F120051EBF22FA05FC44EA0C0442
:1002B000203556EA044C4FEA144418BF641C4FF032
:1002C00000084FF00009904271EB030C39D300296C
:1002D00019BFB1FA81F701FA07F6B0FA80F700FA10
:1002E00007F6C7F120071EBF20FA07FC46EA0C06F6
:1002F0002037B6FBF4FCA7EB0507103F07F01F0BF8
:10030000CBF120062CFA06F60CFA0BFB44BFB346E1
:100310000026202FA4BF5E464FF0000B5BEA060CC0
:1003200008BF4FF0010B19EB0B0948EB0608ABFBBC
:10033000027C06FB02CC0BFB03CCC01B71EB0C0157
:10034000C1E70B46024641464846BDE8F08B13B56F
:10035000084318BF4FF0FF300146AFF30080BDE8FF
:100360001C4070474FF0000200B513469446964675
:10037000203922BFA0E80C50A0E80C50B1F12001B8
:10038000BFF4F7AF090728BFA0E80C5048BF0CC066
:100390005DF804EB890028BF40F8042B08BF7047C4
:1003A00048BF20F8022B11F0804F18BF00F8012B36
:1003B0007047704770477047754600F02BF8AE469F
:1003C00005006946534620F00700854618B020B561
:1003D000FFF73EFFBDE820404FF000064FF000075A
:1003E0004FF000084FF0000BAC46ACE8C009ACE899
:1003F000C009ACE8C009ACE8C00921F007018D468E
:10040000704710B50446AFF300802046BDE81040A9
:10041000FFF709BF0048704710000020014918206D
:10042000ABBEFEE72600020070470000FEE70000BA
:10043000704700004FF4005000F054B8022000F064
:1004400051B80000EFF3108072B600BFFEE7000065
:10045000B0B5022818BFB0BD40F27004C2F200046B
:10046000E068B8B10025E560A06801281CD140F221
:10047000C800C2F200002560A560656000F028FE9B
:1004800040F28000C2F2000000F022FEBDE8B04061
:1004900001F040BC40F28000C2F2000000F0D6FD46
:1004A0000120E060B0BD00BF40F28000C2F2000059
:1004B00000F00EFEA5606068012809D1002140F21D
:1004C000C800C2F200006160BDE8B04000F000BEAC
:1004D000012140F2C800C2F200006160BDE8B040F6
:1004E00000F0B4BD43F61441C4F201010A680242AF
:1004F00014BF08607047FFF7ABBF00002DE9F04F55
:1005000082B000F13E4241F2000502F1FF77C4F2F1
:10051000020507224FEAB726A84208BF0422042E8C
:1005200038BF4FEAB7224FF0010A002400274FF0EE
:100530000008009208E000BF023708F10108202FF0
:1005400004F1040400F0B4800E680AFA08F916EA0F
:10055000090FF1D0D1F804A00AF0030BABF10106AA
:10056000012E17D80322866802FA07FECA6826EA17
:100570000E06BA40324382604268CAF3001522EA8E
:10058000090205FA08F54FEA480C6FEA0E062A43FD
:1005900042600BE00322BA40D643BBF1030FBC46D6
:1005A00004D1BC464FF0030B22E000BFC2688D6847
:1005B000324005FA0CF52A43BBF1020FC26017D195
:1005C0006FF0030202EA5802024404F01C030F25F4
:1005D000D2F820E005FA03FA0D692EEA0A0E05FAB0
:1005E00003F343EA0E031362D1F804A00AF0030BED
:1005F00002680BFA0CF332401A431AF4403F4FF0F2
:10060000010A026098D0002243F644030192C4F22A
:1006100002031A6843F6004E42F480421A601A68D8
:10062000C4F2010E02F480420192019A28F0030202
:100630004FF6084C7244CFF6FF7C52F80C3004F0B1
:100640000C060F25B540AB43009D05FA06F6334373
:1006500042F80C30DEF808204B6842EA090643F6FF
:100660000C4CDD0258BF22EA0906CEF80860C4F23D
:10067000010CDCF800209D0242EA090658BF22EA7C
:100680000906CCF80060DEF804209D0342EA090662
:1006900058BF22EA0906CEF80460DEF80020DB032A
:1006A00042EA090658BF22EA0906CEF8006043E78D
:1006B00002B0BDE8F08F0000002A08BF0904816184
:1006C0007047000040F25410C2F20000006870470A
:1006D00040F2000040F25411C2F20000C2F20001E8
:1006E00000780A68104408607047000080B543F63F
:1006F0000040C4F20200016841F400710160016829
:1007000041F480610160016841F48071016003205F
:1007100000F086F8002000F005F800F027F800202F
:1007200080BD000070B540F20006C2F2000640F243
:1007300008013278C2F200014FF47A730968B3FB02
:10074000F2F20446B1FBF2F1084600F043FB0F2C35
:100750004FF0010508D838B94FF0FF30214600228C
:10076000002500F031F87460284670BD82B000208A
:1007700043F640010190C4F202014A6842F480420B
:100780004A604A6802F480420192019A0090086827
:1007900040F080500860086800F080500090009899
:1007A000072002B000F03CB8002848BF704700F0B6
:1007B0001F01012202FA01F14EF200124009CEF2AD
:1007C000000242F82010704710B54EF60C5CCEF2D5
:1007D000000CDCF80030C3F3022E8EF00704042C6A
:1007E00028BF0424BEF103034FF0FF3E0EFA04F4C9
:1007F00038BF0023A14399400EFA03F39A431143F3
:1008000000F00F02043A624409010C3200F1604327
:10081000B0F1FF3FC8BF03F56442117010BD000086
:100820004EF60C51CEF200010A684FF6FF031A4053
:1008300060F30A2242F0806040F0FD70086070476B
:100840002DE9F041002800F08B8043F60808C4F23F
:1008500002080446D8F8F8030D4600F00700884265
:1008600007D288F8F853D8F8F80300F00700A84238
:1008700076D12068810717D5410705D5D8F8001033
:1008800041F4E051C8F80010010705D5D8F8001070
:1008900041F46041C8F80010D8F80010A26821F0B7
:1008A000F0011143C8F80010C0073FD1D8F8F80391
:1008B00000F00700A84207D988F8F853D8F8F803E1
:1008C00000F00700A8424BD12068410707D5D8F8AF
:1008D0000010E26821F4E0511143C8F8001000074D
:1008E00008D5D8F80000216920F4604040EAC10032
:1008F000C8F8000000F07CF8D8F8001041F6187233
:10090000C1F30311C0F60002515C40F2080220FA64
:1009100001F140F20400C2F200000068C2F20002DD
:100920001160FFF7FFFE0020BDE8F0816068811EC6
:10093000022907D258F8081C89015CBF0120BDE8D4
:10094000F08111E0012807D158F8081C89035CBF29
:100950000120BDE8F08107E058F8081C890703D49E
:100960000120BDE8F08100BFD8F8001021F003019C
:100970000843C8F80000FFF7A5FE064641F2883795
:10098000D8F80000616800F00C00B0EB810F8DD04A
:10099000FFF798FE801BB842F2D90320BDE8F08132
:1009A00040F2080043F60801C2F20000C4F202015E
:1009B0000068096841F62872C1F38221C0F600027E
:1009C000515CC8407047000040F2080043F608013F
:1009D000C2F20000C4F202010068096841F6287200
:1009E000C1F34231C0F60002515CC84070470000BC
:1009F00010B543F60404C4F20204606800F00C0170
:100A000042F200400829C0F2F40007D0042918BFC0
:100A100010BD41F20020C0F27A0010BD216801F043
:100A20003F02216823684902C3F3881106D4A1FB61
:100A300000010023FFF71EFC07E000BF41F2002089
:100A4000C0F27A004843B0FBF2F021680222C1F301
:100A5000014102EB4101B0FBF1F010BD2DE9F04185
:100A600082B000286AD00446007843F60006C0072A
:100A7000C4F202060BD0B06800F00C00042840F06D
:100A8000A1803068800302D56068002856D02078A5
:100A900080071AD5B06810F00C0F09D0B06800F0CC
:100AA0000C00082840F0A8807068400200F1A48083
:100AB0003068800702D5E06801283FD1306821699D
:100AC00020F0F80040EAC10030602078000739D4F7
:100AD000207840074ED4A5695DB3B06800F00C00E3
:100AE000082840F0BD80012D28D07068E16900F42D
:100AF00080028A4222D1216A00F03F028A421DD13F
:100B000047F6C071626A0140B1EB821F16D1A26A3A
:100B10000023CFF6FF7303EBC23200F440316FF3D2
:100B20000F0291420AD1E16A00F07060B0EB016FF0
:100B300004D1002002B0BDE8F08100BF012002B066
:100B4000BDE8F0816069002840F20000C4F247204F
:100B500076D00121C0F8801EFFF7B4FD054600BF26
:100B6000706F8007B4D4FFF7ADFD401B0228F7D9A2
:100B7000DDE000BF306C10F080580AD100200190F9
:100B8000306C40F080503064306C00F08050019048
:100B9000019847F20007C4F200073868C00541D445
:100BA000386840F480703860FFF78CFD054600BF60
:100BB0003868C00536D4FFF785FD401B0228F7D9F9
:100BC000B5E000BFB06800F00C00082803D17068E1
:100BD00040023FF556AF6068B0F5803F07D0B0F5F2
:100BE000A02F40F08D80306840F480203060306865
:100BF00040F4803030608DE0E068002852D0002062
:100C0000C4F2472001210160FFF75CFD054600BFEB
:100C1000306880073FF552AFFFF754FD401B0228B4
:100C2000F6D984E0A068012805D005284ED1306FA0
:100C300040F004003067306F40F0010030674FE053
:100C40000021C0F8801EFFF73DFD0546706F80074C
:100C50007FF53EAFFFF736FD401B0228F6D966E070
:100C60000027C4F2472700203866FFF72BFD022D2E
:100C700005460BD1306880015ED5FFF723FD401B90
:100C800002284FF00300F5D954E700BF3068800117
:100C90007FF54FAFFFF716FD401B02284FF0030012
:100CA000F4D947E70020C4F2472000210160FFF794
:100CB00009FD0546306880077FF507AFFFF702FDA5
:100CC000401B02284FF00300F4D933E7316F0028AE
:100CD00021F001013167316F21F0040131674DD0FE
:100CE000FFF7F0FC054641F2883700BF306F800700
:100CF00056D4FFF7E7FC401BB842F7D917E000BF16
:100D00003168002821F480313160316821F480217C
:100D100031604FD0FFF7D6FC054600BF3068800336
:100D20003FF5B5AEFFF7CEFC401B6428F6D9032093
:100D300002B0BDE8F08100BF04F11C052FCD0843CF
:100D40000021CFF6FF7140EA821001EBC3316FF34F
:100D50000F0140EA05600843706001203866FFF724
:100D6000B1FC0446306880013FF5E3AEFFF7AAFC12
:100D7000001B02284FF00300F4D9DBE6FFF7A2FCCA
:100D8000054641F2883700BF306F800708D5FFF76E
:100D900099FC401BB8424FF00300F5D9CAE600BFEA
:100DA000B8F1000F7FF497AE306C20F080503064C3
:100DB00091E600BFFFF786FC054600BF3068800360
:100DC0007FF565AEFFF77EFC401B64284FF0030003
:100DD000F4D9AFE6411E0020B0EB116F1CBF01201B
:100DE00070474EF21002CEF2000251604EF62351CF
:100DF000CEF20001F0230B70072190601160704764
:100E0000704700007047000010B590F83C20012AA0
:100E10004FF002023ED080F83D200268D2F804E094
:100E2000D2F808C00C682EF07003234340F6FF345C
:100E3000C4F20004A242536010DCB2F1804F1ED015
:100E400040F20043C4F200039A4218D040F6000377
:100E5000C4F200039A4212D016E000BF40F60043ED
:100E6000C4F200039A420AD044F20003C4F2010320
:100E70009A4204D00023C4F201039A4204D1496883
:100E80002CF08003194391600121002280F83D106D
:100E900080F83C20104610BD002804BF0120704798
:100EA00010B5044690F83D0028B9002084F83C00B5
:100EB000204600F08FF8022084F83D00206840F2C0
:100EC000FF730268C4F2000340F2000C9842C4F2BF
:100ED000010C1DDD40F60001C4F20001884220D063
:100EE00060451ED040F60041C4F20001884218D08F
:100EF0004FF6FF71C4F2000188421CDC984225DCE9
:100F0000B0F1804F3AD040F20041C4F2000133E02A
:100F1000B0F1804F05D040F20041C4F20001884298
:100F2000E6D1A16822F070020A434FF6FF71C4F2C5
:100F300000018842E2DD44F2FF31C4F2010188423F
:100F400010DC60451AD044F2000113E040F60001C5
:100F5000C4F20001884211D040F60041C4F2000101
:100F60000AE000BF44F60001C4F20101884205D046
:100F700044F20041C4F20101884203D1216922F404
:100F800040720A43A36922F08001D4F804E0E268C9
:100F9000194360450160C262C0F828E002D161696E
:100FA000CCF8301001214161002084F8461084F80B
:100FB0003E1084F83F1084F8401084F8411084F803
:100FC000421084F8431084F8441084F8451084F8E3
:100FD0003D1010BD10B582B0006840F20041C4F26F
:100FE0000001884214D0B0F1804F2DD10020019033
:100FF00043F64000C4F2020001681C2441F00101E4
:101000000160006800F001000190019810E000BF4D
:101010000020009043F64000C4F2020001681D2445
:1010200041F002010160006800F0020000900098A9
:10103000204600210022FFF7C7FB204602B0BDE892
:101040001040FFF7B1BB00BF02B010BD90F83D10DB
:1010500001291CBF01207047022180F83D10006863
:1010600040F6FF32C168C4F20002904241F0010133
:10107000C1600FDCB0F1804F1DD040F20041C4F2DE
:101080000001884217D040F60001C4F200018842F6
:1010900011D017E040F60041C4F2000188420AD0A6
:1010A00044F20001C4F20101884204D00021C4F2DC
:1010B0000101884206D1816801F00701062904BFB9
:1010C00000207047016841F0010101600020704775
:1010D0000146006841F21113026A1A4204D001224B
:1010E000002081F83D207047026A40F244431A42D2
:1010F000F5D1026822F0010202600122002081F88D
:101100003D20704780B590F83C20012A4FF0020244
:1011100000F0C28080F83D20D0F800C04FF6777212
:10112000DCF8083023EA0202CCF808200B684F2BC9
:1011300028DC1F2B44DD202B45D0302B43D0402B07
:1011400040F0AC80D1F804E0C968DCF82030DCF86D
:10115000202022F00102CCF82020DCF8182022F018
:10116000F00242EA011123F00A0242EA0E02CCF830
:101170001810CCF82020DCF8081041F0470121F0CD
:10118000300180E06F2B27DDB3F5005F48D0B3F569
:10119000805F7AD0702B40F08180D1E901E3C9688B
:1011A000DCF8082043EA0E0322F47F4243EA0121DF
:1011B0001143CCF80810DCF8081041F0770162E028
:1011C0000BB1102B6AD1DCF8081021F07001194323
:1011D00041F0070157E000BF502B35D0602B5DD1A7
:1011E000D1F804E0C968DCF8203023F01003CCF813
:1011F0002030DCF81830DCF8202023F4704322F093
:10120000A00243EA013142EA0E12CCF81810CCF8E1
:101210002020DCF8081041F0670121F0100132E0D5
:10122000D1E901E3C968DCF8082043EA0E0322F49F
:101230007F4243EA01211143CCF80810DCF8081082
:1012400041F480411FE000BFD1F804E0C968DCF838
:101250002030DCF8202022F00102CCF82020DCF83D
:10126000182022F0F00242EA011123F00A0242EAB9
:101270000E02CCF81810CCF82020DCF8081041F051
:10128000570121F02001CCF808100022012180F83C
:101290003D10002180F83C10104680BD0122F5E78A
:1012A0007047000010B5016804460869800744BF14
:1012B000C8685FEA807039D40869400744BFC868CD
:1012C0005FEA40703ED40869000744BFC8685FEA1F
:1012D000007045D40869C00644BFC8685FEAC060B2
:1012E0004AD40869C0071CBFC8685FEAC07051D102
:1012F0000869000644BFC8685FEA006052D4086904
:10130000400644BFC8685FEA406053D4086980065D
:1013100046BFC8685FEA806010BD6FF020022046BB
:101320000A61BDE81040FFF76DBD00BF6FF002001D
:101330000861012020778869800743D02046FFF7A5
:10134000AFFF45E06FF00400086102202077886954
:1013500010F4407F40D02046FFF7A2FF42E000BFDC
:101360006FF00800086104202077C86980073DD02D
:101370002046FFF795FF3FE06FF01000086108205E
:101380002077C86910F4407F3AD02046FFF788FFE5
:101390003CE000BF6FF001000861204600F03EF81D
:1013A0002168A5E76FF0800008612046FFF728FD5F
:1013B0002168A4E76FF040000861204600F04AF879
:1013C0002168A3E7204600F025F8204600F024F825
:1013D0002168002020776FE7204600F01BF82046A8
:1013E00000F01AF82168002020776CE7204600F012
:1013F00011F8204600F010F821680020207769E7F6
:10140000204600F007F8204600F006F8216800208A
:10141000207766E770470000704700000068B0F171
:10142000804F0FD040F20041C4F20001884218BF43
:10143000704740F27000C2F20000016801310160A3
:1014400000F068BC40F27000C2F20000012181602F
:101450007047000070470000002804BF012070475B
:1014600010B5044690F83D0028B9002084F83C00EF
:10147000204600F021F8242084F83D002068C1684F
:1014800021F40051C160204600F0D0FB20680169C2
:1014900021F490410161416921F02A014161C16853
:1014A00041F40051C16000202021206484F83D10E7
:1014B00084F83E1010BD000080B586B0016844F28B
:1014C0000040C4F20000814202D006B080BD00BFDF
:1014D000002143F630020191C4F20202136900F5C3
:1014E000DE3043F400331361136903F400330193D6
:1014F000019B0191136843F001031360126802F02D
:1015000001020192019A0C2201920222CDE90221EC
:1015100004910721059101A9FEF7F0FF06B080BDF7
:10152000FEE7000082B040F21441C4F20201002242
:101530000A600B6823F003030B600B6843EAC000EA
:101540000860086840F00400086000920098B0F558
:10155000C87F1BDA0098013000900098B0F5C87F72
:1015600014DA0098013000900098B0F5C87F0DDAC9
:101570000098013000900098B0F5C87F06DA009816
:10158000013000900098B0F5C87FE3DB009200982E
:10159000B0F5C87F1CDA00BF0098013000900098B9
:1015A000B0F5C87F14DA0098013000900098B0F5CB
:1015B000C87F0DDA0098013000900098B0F5C87F20
:1015C00006DA0098013000900098B0F5C87FE3DBA0
:1015D00000200090009AB2F5C87F1FDA009A01320D
:1015E0000092009AB2F5C87F18DA009A0132009290
:1015F000009AB2F5C87F11DA009A01320092009A7F
:10160000B2F5C87F0ADA009A01320092009AB2F568
:10161000C87FE3DB02E000BF009801300090009833
:10162000B0F5C87F14DA0098013000900098B0F54A
:10163000C87F0DDA0098013000900098B0F5C87F9F
:1016400006DA0098013000900098B0F5C87FE3DB1F
:10165000086820F004000860002001900199B1F5AD
:10166000C87F1FDA0199013101910199B1F5C87F55
:1016700018DA0199013101910199B1F5C87F11DAA8
:101680000199013101910199B1F5C87F0ADA0199F7
:10169000013101910199B1F5C87FE3DB02E000BFA0
:1016A0000198013001900198B0F5C87F14DA0198D3
:1016B000013001900198B0F5C87F0DDA0198013032
:1016C00001900198B0F5C87F06DA019801300190C9
:1016D0000198B0F5C87FE3DB002001900199B1F5D6
:1016E000C87F1FDA0199013101910199B1F5C87FD5
:1016F00018DA0199013101910199B1F5C87F11DA28
:101700000199013101910199B1F5C87F0ADA019976
:10171000013101910199B1F5C87FE3DB02E000BF1F
:101720000198013001900198B0F5C87F14DA019852
:10173000013001900198B0F5C87F0DDA01980130B1
:1017400001900198B0F5C87F06DA01980130019048
:101750000198B0F5C87FE3DB02B0704782B040F279
:101760001441C4F202010A6842F001020A600A68E8
:1017700022F002020A600A6802F007020A600A68A0
:1017800042EAC0000860086840F0040008600020D9
:101790000090009AB2F5C87F20DA00BF009A0132AB
:1017A0000092009AB2F5C87F18DA009A01320092CE
:1017B000009AB2F5C87F11DA009A01320092009ABD
:1017C000B2F5C87F0ADA009A01320092009AB2F5A7
:1017D000C87FE3DB02E000BF009801300090009872
:1017E000B0F5C87F14DA0098013000900098B0F589
:1017F000C87F0DDA0098013000900098B0F5C87FDE
:1018000006DA0098013000900098B0F5C87FE3DB5D
:1018100000200090009AB2F5C87F1FDA009A0132CA
:101820000092009AB2F5C87F18DA009A013200924D
:10183000009AB2F5C87F11DA009A01320092009A3C
:10184000B2F5C87F0ADA009A01320092009AB2F526
:10185000C87FE3DB02E000BF0098013000900098F1
:10186000B0F5C87F14DA0098013000900098B0F508
:10187000C87F0DDA0098013000900098B0F5C87F5D
:1018800006DA0098013000900098B0F5C87FE3DBDD
:10189000086820F004000860002001900199B1F56B
:1018A000C87F1FDA0199013101910199B1F5C87F13
:1018B00018DA0199013101910199B1F5C87F11DA66
:1018C0000199013101910199B1F5C87F0ADA0199B5
:1018D000013101910199B1F5C87FE3DB02E000BF5E
:1018E0000198013001900198B0F5C87F14DA019891
:1018F000013001900198B0F5C87F0DDA01980130F0
:1019000001900198B0F5C87F06DA01980130019086
:101910000198B0F5C87FE3DB002001900199B1F593
:10192000C87F1FDA0199013101910199B1F5C87F92
:1019300018DA0199013101910199B1F5C87F11DAE5
:101940000199013101910199B1F5C87F0ADA019934
:10195000013101910199B1F5C87FE3DB02E000BFDD
:101960000198013001900198B0F5C87F14DA019810
:10197000013001900198B0F5C87F0DDA019801306F
:1019800001900198B0F5C87F06DA01980130019006
:101990000198B0F5C87FE3DB02B070472DE9F04F46
:1019A00087B0002443F63000CDE905440194C4F229
:1019B0000200016840F6000641F004010160016880
:1019C000C4F2020601F00401019101990194016839
:1019D000002241F08001016001684FF0080B01F026
:1019E0008001019101990194016841F001010160B8
:1019F000016801F00101019101990194016841F030
:101A0000020101600068082100F0020001900198C5
:101A10003046FEF751FEA6F5006948462021002217
:101A20004FF0200AFEF748FEA6F58068404640F2D7
:101A3000FF710022FEF740FE4FF4005002904FF479
:101A4000041002AFCDE9030430463946FEF756FDD7
:101A500002204FF444110290CDE90310304639467C
:101A6000FEF74CFD012530463946CDF808B0CDE9EA
:101A700003540594FEF742FD48463946CDE902A5D8
:101A8000CDE90444FEF73AFD40F2FF70CDE90205CE
:101A900040463946CDE90444FEF730FD07200021D9
:101AA0000022FEF791FE0720FEF77EFE282000218F
:101AB0000022FEF789FE2820FEF776FE07B0BDE87B
:101AC000F08F000080B586B040F280000021C2F2A5
:101AD00000004FF0804241F63F734FF0C80C059173
:101AE000CDE90311CDE90011C0E90023C0E9021CD2
:101AF00001618161FFF7D0F9002818BFFEF7A2FC51
:101B00004FF48050029040F28000C2F2000002A91F
:101B1000FFF7F8FA002818BFFEF794FC40F28000A7
:101B2000C2F200006946FFF76FF9002818BFFEF700
:101B300089FC06B080BD000080B586B040F2C800C8
:101B400040F200420021C2F20000C4F2000241F65D
:101B50003F734FF00C0C0591CDE90311CDE9001155
:101B6000C0E90023C0E9021C01618161FFF794F91B
:101B7000002818BFFEF766FC4FF48050029040F238
:101B8000C800C2F2000002A9FFF7BCFA002818BF83
:101B9000FEF758FC40F2C800C2F200006946FFF7A9
:101BA00033F9002818BFFEF74DFC06B080BD0000D9
:101BB00080B540F2101044F20041C2F20000C4F2BD
:101BC000000100234FF00C0C4FF4E13280E80E00CE
:101BD000C0E90333C0E905C3C361FFF73DFC00283A
:101BE00008BF80BDBDE88040FEF72CBCFEE70000CA
:101BF000FEE700007047000070470000FEF768BD78
:101C00004EF68850CEF20000016841F47001016088
:101C10007047000040F28000C2F20000FFF742BBB4
:101C200040F2C800C2F20000FFF73CBB10B504460A
:101C30000068D4E902C22369016921F440511143CB
:101C40000161626943EA0C01E3691143C268194307
:101C500049F20C639A431143C1604169A26921F4BE
:101C6000407141F20043114340F48062C4F2010329
:101C70009A42416102D1FEF7A7FE01E0FEF790FE15
:101C8000E16963681922B1F5004FA0FB02011FD181
:101C90005A00DB0FFEF7EEFA48F21F51C5F2EB11C6
:101CA000A0FB01235A096FF0630302FB03003223F8
:101CB00003EBC000A0FB01014FF4F87000EA111023
:101CC00000EB0210C1F3421108442168886010BD86
:101CD0009A009B0FFEF7CEFA48F21F51C5F2EB11A6
:101CE000A0FB01235A096FF0630302FB03003223B8
:101CF00003EB0010A0FB0101F02000EA511000EB03
:101D00000210C1F3431108442168886010BD00002F
:101D1000FEE7000010B584B040F27000C2F200008F
:101D2000016848F2B512C1F64E32A1FB02129109C8
:101D3000039101684CF6CD44CCF6CC44A1FB0412CF
:101D4000D10848F68902C8F68802A1FB02235A0985
:101D50001201A2EB5312A1EB820102910068A0FBD9
:101D60000412D10801EB8101A0EB41000190012098
:101D7000FFF7D8FB0398092806D83020FFF7EEFCC0
:101D80000398303013E000BF0398A0FB040130201B
:101D900000EBD100C0B2FFF7E1FC0398A0FB0412F6
:101DA000D10801EB8101A0EB410040F03000C0B24E
:101DB000FFF7D4FC3A20FFF7D1FC0298092805D898
:101DC0003020FFF7CBFC0298303012E00298A0FBE5
:101DD0000401302000EBD100C0B2FFF7BFFC029835
:101DE000A0FB0412D10801EB8101A0EB410040F0FF
:101DF0003000C0B2FFF7B2FC3A20FFF7AFFC019809
:101E00003030C0B2FFF7AAFC302004B0BDE810406B
:101E1000FFF7A4BC92B0FEF769FC06AC04F1080021
:101E20002821FEF79FFA002543F640000595CDE9ED
:101E30000355CDE901550095C4F202000168022264
:101E400041F0805101600068012600F08050009050
:101E5000009847F200000095C4F20000016862F3A8
:101E60008F310160006800F44040009000984FF40A
:101E7000A0200790204606960C95FEF7EFFD28B1AE
:101E8000EFF3108072B600BFFEE700BF0F20CDE970
:101E900001064FF48050CDE9040501A80021039507
:101EA000FEF7CEFC20B1EFF3108072B6FEE700BF64
:101EB000FFF774FDFFF77CFEFFF73EFEFFF702FE23
:101EC0003020FFF72FFB0620FFF72CFB0120FFF748
:101ED00029FB8020FFF726FB0C20FFF723FB542073
:101EE000FFF73CFC4920FFF739FC4D20FFF736FC9B
:101EF0004520FFF733FC5220FFF730FCFEE7F1EE00
:101F0000100A4FF6FF71C0F2C03120EA010040F024
:101F10004070E1EE100A7047000000000000000071
:101F2000010203040607080900000000010203047F
:101F3000501F00080000002010000000D001000821
:101F4000601F00081000002048070000EC01000896
:101F500001000000100000000024F4000000000058
:040000050800019559
:00000001FF
