:020000040800F2
:10000000C00600203502000859120008A11000089F
:10001000551200082D0400085D16000800000000BD
:100020000000000000000000000000008D12000829
:10003000310400080000000089120008C112000805
:100040004F0200084F0200084F0200084F0200084C
:100050004F0200084F0200084F0200084F0200083C
:100060004F0200084F0200084F0200084F0200082C
:100070004F0200084F0200084F0200084F0200081C
:100080004F0200084F0200084F0200080000000065
:100090000000000000000000000000004F02000807
:1000A0004F0200084F0200084F0200084F020008EC
:1000B0004F0200084F0200084F0200084F020008DC
:1000C0004F0200084F0200084F0200084F020008CC
:1000D0004F0200084F0200084F0200080000000015
:1000E0004F0200084F0200084F0200080000000005
:1000F0000000000000000000000000004F020008A7
:10010000000000004F0200084F0200084F020008E4
:1001100000000000000000000000000000000000DF
:100120004F0200084F0200084F0200084F0200086B
:100130004F02000800000000000000000000000066
:100140000000000000000000000000004F02000856
:100150004F0200084F0200084F0200084F0200083B
:100160004F0200084F0200080000000000000000DD
:10017000000000000000000000000000000000007F
:10018000000000004F020008000000000000000016
:100190004F02000800F002F800F03CF80AA090E8D6
:1001A000000C82448344AAF10107DA4501D100F032
:1001B00031F8AFF2090EBAE80F0013F0010F18BFC3
:1001C000FB1A43F0010318479C150000BC15000002
:1001D000103A24BF78C878C1FAD8520724BF30C873
:1001E00030C144BF04680C60704700000023002445
:1001F00000250026103A28BF78C1FBD8520728BF37
:1002000030C148BF0B6070471FB501F095FA1FBDA4
:1002100010B510BD00F0D0F81146FFF7F5FF01F062
:1002200049FA00F0EEF803B4FFF7F2FF03BC00F068
:10023000F5F800000948804709480047FEE7FEE757
:10024000FEE7FEE7FEE7FEE7FEE7FEE7FEE7FEE786
:1002500004480549054A064B704700006913000829
:1002600095010008C0000020C0060020C002002048
:10027000C002002053EA020C00F069802DE9F04B27
:100280004FF00006002B1FBFB3FA83F503FA05F405
:1002900024FA05F65E4012BF1643B2FA82F502FA5E
:1002A00005F4C5F120051EBF22FA05FC44EA0C0442
:1002B000203556EA044C4FEA144418BF641C4FF032
:1002C00000084FF00009904271EB030C39D300296C
:1002D00019BFB1FA81F701FA07F6B0FA80F700FA10
:1002E00007F6C7F120071EBF20FA07FC46EA0C06F6
:1002F0002037B6FBF4FCA7EB0507103F07F01F0BF8
:10030000CBF120062CFA06F60CFA0BFB44BFB346E1
:100310000026202FA4BF5E464FF0000B5BEA060CC0
:1003200008BF4FF0010B19EB0B0948EB0608ABFBBC
:10033000027C06FB02CC0BFB03CCC01B71EB0C0157
:10034000C1E70B46024641464846BDE8F08B13B56F
:10035000084318BF4FF0FF300146AFF30080BDE8FF
:100360001C4070474FF0000200B513469446964675
:10037000203922BFA0E80C50A0E80C50B1F12001B8
:10038000BFF4F7AF090728BFA0E80C5048BF0CC066
:100390005DF804EB890028BF40F8042B08BF7047C4
:1003A00048BF20F8022B11F0804F18BF00F8012B36
:1003B0007047704770477047754600F02BF8AE469F
:1003C00005006946534620F00700854618B020B561
:1003D000FFF73EFFBDE820404FF000064FF000075A
:1003E0004FF000084FF0000BAC46ACE8C009ACE899
:1003F000C009ACE8C009ACE8C00921F007018D468E
:10040000704710B50446AFF300802046BDE81040A9
:10041000FFF709BF0048704710000020014918206D
:10042000ABBEFEE72600020070470000FEE70000BA
:1004300070470000EFF3108072B600BFFEE70000C7
:100440002DE9F04F83B000F13E4202F1FF724FEA16
:10045000B22241F200070192C4F2020707224FF0D4
:10046000010E00254FF0000A4FF00008B84208BF07
:10047000042200920AE000BF08F101080AF1040A10
:10048000B8F1100F05F1020500F0A4800C680EFA17
:1004900008FB14EA0B09EFD04C6804F0030CACF134
:1004A000010EBEF1010F11D80322876802FA05F68A
:1004B000CA68B743AA403A4382604268C4F300174F
:1004C00022EA0B0207FA08F73A434260BCF1030F35
:1004D0001CD0C26803238E6803FA05F7BA4306FAF4
:1004E00005F73A43BCF1020FC2600FD16FF003026F
:1004F00002EA580202440AF01C060F23176A03FAA4
:1005000006F40B69A743B3403B431362026803231D
:100510004F68AB409A4307F00303AB401A4317F40C
:10052000403F4FF0010E0260A6D0002243F6440384
:100530000292C4F202031A6843F6004442F4804275
:100540001A601A68C4F2010402F480420292029A0C
:1005500028F003024FF6084B2244CFF6FF7B52F8F7
:100560000B300AF00C070F26BE4023EA060C019B55
:10057000009E042B38BF1E4606FA07F747EA0C0315
:1005800042F80B30A2684B6842EA090743F60C4C6C
:10059000DE0258BF22EA0907A760C4F2010CDCF8AA
:1005A00000209E0242EA090758BF22EA0907CCF858
:1005B000007062689E0342EA090758BF22EA0907F1
:1005C00067602268DB0342EA090358BF22EA090395
:1005D000236051E703B0BDE8F08F000000690840D8
:1005E00018BF012070470000002A08BF090481617C
:1005F0007047000040F2BC00C2F200000068704783
:1006000040F2040040F2BC01C2F20000C2F200015C
:1006100000780A68104408607047000080B543F60F
:100620000040C4F20200016841F4007101600168F9
:1006300041F480610160016841F480710160032030
:1006400000F060F8002000F005F800F02BF8002022
:1006500080BD0000B0B540F20402C2F2000240F2D8
:1006600000011278C2F200014FF47A730968B3FBFB
:10067000F2F20446B1FBF2F1084600F0D1FA0F2C79
:100680004FF001050CD858B94FF0FF302146002239
:10069000002500F027F840F20800C2F200000460D4
:1006A0002846B0BD80B582B0002043F640010190DD
:1006B000C4F202014A6842F480424A604A6802F485
:1006C00080420192019A0090086840F080500860D2
:1006D000086800F0805000900098072000F012F8A1
:1006E00002B080BD70B514460D46064600F0B8FF56
:1006F0002946224600F0B2FD0146304600F0B8FF20
:1007000070BD000080B500F0C5FF80BD2DE9F0414F
:10071000002800F08B8043F60808C4F20208044663
:10072000D8F8F8030D4600F00700884207D288F891
:10073000F853D8F8F80300F00700A84276D12068F3
:10074000810717D5410705D5D8F8001041F4E051CD
:10075000C8F80010010705D5D8F8001041F4604131
:10076000C8F80010D8F80010A26821F0F001114379
:10077000C8F80010C0073FD1D8F8F80300F0070010
:10078000A84207D988F8F853D8F8F80300F0070012
:10079000A8424BD12068410707D5D8F80010E2687D
:1007A00021F4E0511143C8F80010000708D5D8F82B
:1007B0000000216920F4604040EAC100C8F8000050
:1007C00000F054F8D8F8001041F25272C1F303114E
:1007D000C0F60002515C40F2000220FA01F140F242
:1007E0000800C2F200000068C2F200021160FFF7C8
:1007F00031FF0020BDE8F0816068811E022907D228
:1008000058F8081C89015CBF0120BDE8F08110E0A8
:10081000012807D158F8081C89035CBF0120BDE8F6
:10082000F08106E058F8081C890702D40120BDE8D1
:10083000F081D8F8001021F003010843C8F8000047
:10084000FFF7D8FE064641F2883700BFD8F800000F
:10085000616800F00C00B0EB810F8DD0FFF7CAFE8D
:10086000801BB842F2D90320BDE8F08110B543F6F1
:100870000404C4F20204606800F00C0142F200407B
:100880000829C0F2F40007D0042918BF10BD41F2B6
:100890000020C0F27A0010BD216801F03F022168FB
:1008A00023684902C3F3881105D4A1FB000100238A
:1008B000FFF7E0FC06E041F20020C0F27A00484376
:1008C000B0FBF2F021680222C1F3014102EB4101C9
:1008D000B0FBF1F010BD00002DE9F04182B000281E
:1008E00000F0A2800446007843F60006C007C4F278
:1008F000020643D0B06800F00C00042805D130682F
:1009000080033BD56068C8BB8EE0B06800F00C0087
:10091000082802D170684002F1D46568B5F5A02FAF
:100920000AD0B5F5803F0BD0306820F480303060BD
:10093000306820F4802006E0306840F48020306089
:10094000306840F480303060FFF754FE002D0546DB
:1009500011D000BF3068800310D4FFF74BFE401B5E
:100960006428F7D922E100BFFFF744FE401B64284A
:100970004FF0030055D830688003F5D42078800705
:100980001AD5B06810F00C0F09D0B06800F00C0058
:10099000082840F08A807068400200F18680306844
:1009A000800702D5E06801283ED13068216920F037
:1009B000F80040EAC10030602078000738D4207881
:1009C00040074CD4A5695DB3B06800F00C0008285E
:1009D00040F09E80012D27D07068E16900F480020C
:1009E0008A4221D1216A00F03F028A421CD147F697
:1009F000C071626A0140B1EB821F15D1A26A002367
:100A0000CFF6FF7303EBC23200F440316FF30F02F5
:100A1000914209D1E16A00F07060B0EB016F03D13F
:100A2000002002B0BDE8F081012002B0BDE8F081F5
:100A30006069002840F20000C4F2472057D001212D
:100A4000C0F8801EFFF7D6FD054600BF706F800717
:100A5000B5D4FFF7CFFD401B0228F7D9A6E0306CD4
:100A600010F080580AD100200190306C40F0805086
:100A70003064306C00F080500190019847F200071C
:100A8000C4F200073868C00524D4386840F4807088
:100A90003860FFF7AFFD05463868C0051AD4FFF788
:100AA000A9FD401B0228F7D980E0E068002851D05A
:100AB0000020C4F2472001210160FFF79BFD05469D
:100AC000306880073FF571AFFFF794FD401B0228A7
:100AD000F6D96BE0A568052D50D0012D52D0306FAE
:100AE00020F001003067306F20F004004DE000215D
:100AF000C0F8801EFFF77EFD054600BF706F8007BF
:100B00007FF55DAFFFF776FD401B0228F6D94DE07B
:100B10000027C4F2472700203866FFF76BFD022D3F
:100B200005460BD13068800158D5FFF763FD401BA7
:100B300002284FF00300F5D973E700BF3068800149
:100B40007FF56EAFFFF756FD401B02284FF0030004
:100B5000F4D966E70020C4F2472000210160FFF7C6
:100B600049FD0546306880077FF526AFFFF742FD57
:100B7000401B02284FF00300F4D952E7306F40F0D9
:100B800004003067306F40F001003067FFF732FD3E
:100B9000002D054641F2883714D000BF306F800722
:100BA00013D4FFF727FD401BB842F7D9032002B04A
:100BB000BDE8F081FFF71EFD401BB8424FF0030077
:100BC0003FF62FAF306F8007F4D4B8F1000F7FF4F9
:100BD000F9AE306C20F080503064F3E604F11C056F
:100BE0002FCD08430021CFF6FF7140EA821001EBC0
:100BF000C3316FF30F0140EA0560084370600120C4
:100C00003866FFF7F7FC0446306880013FF508AF0F
:100C1000FFF7F0FC001B02284FF00300F4D900E7B7
:100C200080B500F035FB80BDB0B590F83C20012ABE
:100C300004BF0220B0BD01F108053CCDD1E900CED2
:100C400023F47C5322F470521A432EF4F0431A43D7
:100C50002CF4E0431A4324F4C0431A432A43C969DD
:100C600022F48042036811435964002180F83C104B
:100C70000846B0BD10B590F83C20012A4FF00202A2
:100C800040D0012380F83C3080F83D200268D2F843
:100C900004E0D2F808C00C682EF07003234340F63D
:100CA000FF34C4F20004A24253600FDCB2F1804F63
:100CB0001DD040F20043C4F200039A4217D040F620
:100CC0000003C4F200039A4211D015E040F600433D
:100CD000C4F200039A420AD044F20003C4F20103B2
:100CE0009A4204D00023C4F201039A4204D1496815
:100CF0002CF08003194391600121002280F83D10FF
:100D000080F83C20104610BD002804BF0120704729
:100D100010B5044690F83D0028B9002084F83C0046
:100D2000204600F01FF8022084F83D002068211DB5
:100D300000F024FB012084F8460084F83E0084F88B
:100D40003F0084F8400084F8410084F8420084F8B1
:100D5000430084F8440084F8450084F83D000020F6
:100D600010BD000081B000680021C4F2010188427A
:100D700001D001B070470020009043F64400C4F257
:100D80000200016841F001010160006800F001000B
:100D90000090009801B0704710B5044690F83C00F0
:100DA00001284FF0020008BF10BD012284F83C204A
:100DB00084F83D0020684FF6777382689A4382601A
:100DC0000A684F2A0FDC1F2A22DD202A23D0302A6E
:100DD00021D0402A4DD14B68CA68194600F01AFC50
:100DE000206840213BE06F2A17DDB2F5005F20D07C
:100DF000B2F5805F2AD0702A3BD1D1E9012CCB68B3
:100E0000614600F03BFB2068816841F077011AE001
:100E10000AB1102A2DD1114621E0502A18D0602A9B
:100E200027D14B68CA68194600F006FC206860218B
:100E300015E0D1E9012CCB68614600F01FFB20686A
:100E4000816841F48041816000200BE0002009E0CE
:100E50004B68CA68194600F0DDFB2068502100F09D
:100E600019FB0020012184F83D10002184F83C107A
:100E700010BD0120F6E7000080B586B000210068B3
:100E8000C4F20101002288420592CDE903220292B8
:100E9000019201D006B080BD43F630000092C4F24A
:100EA0000200036843F001030360006800F00100E2
:100EB000009000984FF4807001900220CDE902026A
:100EC0000120059001F5803001A90492FFF7B8FADE
:100ED00006B080BDB0B5044690F83C00012804BFC0
:100EE0000220B0BD0D464FEAB2010120032984F86B
:100EF0003C0037D8DFE801F0020A122220682946B8
:100F000000F0D0FA206850F8181F0EE0206829463B
:100F100000F0F8FA206850F8181F16E020682946FB
:100F200000F022FB206850F81C1F41F0080101600E
:100F3000016821F00401016029690FE02068294659
:100F400000F044FB206850F81C1F41F40061016070
:100F5000016821F480610160296909020268114376
:100F600001600020002184F83C10B0BD002804BFBF
:100F70000120704710B5044690F83D0028B90020C4
:100F800084F83C00204600F01FF8022084F83D0061
:100F90002068211D00F0F2F9012084F8460084F851
:100FA0003E0084F83F0084F8400084F8410084F853
:100FB000420084F8430084F8440084F8450084F833
:100FC0003D00002010BD000070470000B0B5044691
:100FD00041B1082909D0042914BF04F1410004F1EA
:100FE0003F0004E004F13E0001E004F1400000781D
:100FF00001281CBF0120B0BD022041B1082909D041
:10100000042914BF84F8410084F83F0004E084F808
:101010003E0001E084F84000206844250122C4F22B
:10102000010500F019FA2068A5F14401884203D1B6
:10103000296841F40041296040F6FF31C4F2000103
:1010400088420FDCB0F1804F1DD040F20041C4F265
:101050000001884217D040F60001C4F20001884226
:1010600011D017E040F60041C4F2000188420AD0D6
:1010700044F20001C4F20101884204D00021C4F20C
:101080000101884206D1816801F00701062904BFE9
:101090000020B0BD016841F0010101600020B0BD39
:1010A000FEE700002DE9F04186B0002643F630004F
:1010B0000596CDE90366CDE901660096C4F202000B
:1010C0000168002441F0040101600168C4F20204D7
:1010D00001F004010091009900960168002241F09E
:1010E0000101016001684FF0600801F00101009109
:1010F00000990096016841F00201016000686021DA
:1011000000F00200009000982046FFF76DFA4FF4BF
:10111000405001ADCDE90106022704F500602946E3
:101120000397FFF78DF90320CDE9010620462946F4
:101130000396FFF785F90820CDE901070720059000
:1011400020462946CDE90366FFF77AF90120CDE96B
:10115000020620462946CDF804800496FFF770F970
:1011600006B0BDE8F081000010B596B040F2740002
:1011700000220021C2F20000C4F201024FF6FF7308
:101180001591CDE91311CDE91111CDE90F11CDE97B
:101190000D11CDE90B11CDE90911CDE90711CDE90B
:1011A0000511CDE90311CDE90111C0E90021C0E924
:1011B0000213C0E904118161FFF7A6FD002847D1A1
:1011C0004FF48050129040F27400C2F2000012A955
:1011D000FFF7E2FDE0BB40F27400C2F20000FFF74F
:1011E000C5FEA8BB40F274000024C2F2000010A9A2
:1011F000CDE91044FFF73EFD50BB6020CDE9090466
:1012000040F27400C2F2000009A90022CDE90B44AB
:10121000CDE90D440F94FFF75DFEC8B9002005909D
:10122000CDE90300CDE901004FF40051089040F2F0
:1012300074000691C2F2000001A9FFF7F5FC38B96D
:1012400040F27400C2F20000FFF716FE16B010BDA7
:10125000FFF7F0F8FEE70000FEE7000000F00700EF
:1012600080F00703042B28BF04234FF0FF3C033812
:101270000CFA03F338BF0020994381400CFA00F0C8
:1012800022EA0000084370477047000070470000E2
:10129000B0B501380024B4EB106F1CBF0120B0BD05
:1012A0004EF21005CEF2000568604FF0FF300F21BE
:1012B00000F0DEF90720AC6028602046B0BD0000D9
:1012C00080B5FFF79DF980BD70B592B006AC2046A1
:1012D0003021FFF747F8002543F640000595CDE99A
:1012E0000355CDE901550095C4F2020001680226BC
:1012F00041F080510160006800F08050009000983B
:1013000047F200000095C4F20000016866F38F31D7
:101310000160006800F440400090009801200990AE
:1013200010200A900E904FF4A8700F900420109097
:101330000720119020460696CDE90C65FFF7CCFA00
:1013400078B90F20CDE901064FF48050CDE90405AE
:1013500001A802210395FFF7D9F9002804BF12B0B4
:1013600070BDFFF767F800004EF68850CEF200001F
:10137000016841F4700101607047000010B540F24F
:10138000FF7E0368C4F2000E40F2000C7045C4F208
:10139000010C0ADD40F60002C4F2000290420DD0BA
:1013A00060450BD040F6004204E0B0F1804F05D01C
:1013B00040F20042C4F20002904203D14A6823F096
:1013C000700313434FF6FF72C4F20002904209DC2F
:1013D000704512DCB0F1804F26D040F20042C4F2DA
:1013E00000021FE044F2FF32C4F2010290420FDC1F
:1013F000604519D044F2000212E040F60002C4F247
:101400000002904210D040F60042C4F2000209E00F
:1014100044F60002C4F20102904205D044F20042B8
:10142000C4F20102904203D1CA6823F4407313430B
:1014300023F080024B69D1F800E08C681A436045C4
:101440000260C462C0F828E002D10969CCF830100B
:101450000121416110BD000080B501F01F014FF076
:10146000010CD0F820E00CFA01F32EEA030303622A
:10147000036A02FA01F11943016280BDD0F808C085
:1014800011432CF47F4C41EA032141EA0C018160B5
:1014900070470000826822F07002114341F007019A
:1014A00081607047B0B5026A002422F00102026236
:1014B000026AD0F804E0D0F818C08B6822F002026B
:1014C000C4F20104A04242EA030205D1CB6822F033
:1014D0000C0223F004031A430B68A04207D1D1E9A0
:1014E00005452EF4407E44EA0E0444EA050E2CF035
:1014F00073052B43C0F804E08361496841630262CD
:10150000B0BD0000B0B5026A002422F010020262F1
:10151000026AD0F804E0D0F818C08B6822F02002EC
:10152000C4F20104A04242EA031207D1CB686FF073
:10153000400522F0C00205EA03131A430B68A042DB
:1015400007D1D1E905452EF4406E4EEA840444EA01
:10155000850E2CF4E64545EA0323C0F804E08361D8
:10156000496881630262B0BDB0B5026A002422F40A
:1015700080720262026AD0F804E0D0F81CC08B6866
:1015800022F40072C4F20104A04242EA032207D10D
:10159000CB6840F2FF451B0222F44062AB431A4382
:1015A0000B68A04207D1D1E905452EF4405E4EEA12
:1015B000041444EA051E2CF073052B43C0F804E024
:1015C000C3614968C1630262B0BD0000B0B5026A80
:1015D000002522F480520262026A4368D0F81CE0BF
:1015E0000C68D1F808C0C4F20105A84204D14D69C5
:1015F00023F4804343EA85132EF4E64545EA0425A7
:101600004360C56122F40052496842EA0C32016429
:101610000262B0BDD0F820C0036A23F00103036268
:10162000836923F0F00343EA02122CF00A03194302
:101630008261016270470000036A23F010030362B5
:101640008369D0F820C023F4704343EA02322CF0BF
:10165000A00343EA0111826101627047FEE70000C6
:101660004EF60C50CEF200000068C0F30220704726
:101670004EF6145300F00F02CEF2000309011A4493
:1016800000F16043B0F1FF3FC8BF03F56442117041
:10169000704700004EF60C51CEF200010A684FF67A
:1016A000FF031A4060F30A2242F0806040F0FD70B0
:1016B0000860704740F600043425C4F20204C4F206
:1016C0000105FEF7ABFFFFF7FFFDFFF7EBFCFFF7B0
:1016D0004BFDFFF7F9FDFFF7F7FDFFF7E3FCFFF721
:1016E00043FD40F27400C2F200000021FFF76EFCDF
:1016F00040F270064CF25030C2F20006286000BF83
:1017000020464FF48051FEF769FF68B1306800F55C
:10171000FA70306030682860F2E700BF3068A0F5EA
:10172000FA7030603068286020464FF40051FEF7B0
:1017300055FF0028F2D1E3E7F1EE100A4FF6FF71F2
:10174000C0F2C03120EA010040F04070E1EE100A22
:1017500070470000000000000000010203040607BB
:101760000809000088170008000000201000000091
:10177000D00100089817000810000020B0060000F3
:10178000EC010008000000000024F400010000004B
:08179000100000000000000041
:040000050800019559
:00000001FF
