:020000040800F2
:10000000000700203D02000881170008791700084A
:100010007D1700081D0600083D19000800000000BB
:100020000000000000000000000000008917000828
:100030002106000800000000851700088D17000841
:10004000570200085702000857020008570200082C
:10005000570200085702000857020008570200081C
:10006000570200085702000857020008570200080C
:1000700057020008570200085702000857020008FC
:10008000570200085702000857020008000000004D
:1000900000000000000000000000000057020008FF
:1000A00057020008570200085702000857020008CC
:1000B00057020008570200085702000857020008BC
:1000C00057020008570200085702000857020008AC
:1000D00057020008570200085702000800000000FD
:1000E00057020008570200085702000800000000ED
:1000F000000000000000000000000000570200089F
:1001000000000000570200085702000857020008CC
:1001100000000000000000000000000000000000DF
:10012000570200085702000857020008570200084B
:10013000570200080000000000000000000000005E
:10014000000000000000000000000000570200084E
:10015000570200085702000857020008570200081B
:1001600057020008570200080000000000000000CD
:10017000000000000000000000000000000000007F
:10018000000000005702000800000000000000000E
:100190005702000800F002F800F041F80AA090E8C9
:1001A000000C82448344AAF10107DA4501D100F032
:1001B00036F8AFF2090EBAE80F0013F0010F18BFBE
:1001C000FB1A43F001031847E4180000041900006B
:1001D000103A24BF78C878C1FAD8520724BF30C873
:1001E00030C144BF04680C60704700000023002445
:1001F00000250026103A28BF78C1FBD8520728BF37
:1002000030C148BF0B607047752900F0F7800020AF
:1002100070471FB501F030FC1FBD10B510BD00F0D8
:10022000C2F91146FFF7F5FF01F08AFB00F0E0F993
:1002300003B4FFF7F2FF03BC00F0E8F90948804778
:1002400009480047FEE7FEE7FEE7FEE7FEE7FEE7B8
:10025000FEE7FEE7FEE7FEE704480549054A064BD0
:1002600070470000391800089501000800010020BF
:1002700000070020000300200003002053EA020CC6
:1002800000F069802DE9F04B4FF00006002B1FBFF6
:10029000B3FA83F503FA05F424FA05F65E4012BFBB
:1002A0001643B2FA82F502FA05F4C5F120051EBF25
:1002B00022FA05FC44EA0C04203556EA044C4FEAC5
:1002C000144418BF641C4FF000084FF0000990421E
:1002D00071EB030C39D3002919BFB1FA81F701FA88
:1002E00007F6B0FA80F700FA07F6C7F120071EBF3D
:1002F00020FA07FC46EA0C062037B6FBF4FCA7EB15
:100300000507103F07F01F0BCBF120062CFA06F66D
:100310000CFA0BFB44BFB3460026202FA4BF5E4659
:100320004FF0000B5BEA060C08BF4FF0010B19EB16
:100330000B0948EB0608ABFB027C06FB02CC0BFB6F
:1003400003CCC01B71EB0C01C1E70B4602464146D2
:100350004846BDE8F08B13B5084318BF4FF0FF3097
:100360000146AFF30080BDE81C4070470FB41CB5D8
:10037000074B06AA7B4469460090059800F0FBF8FD
:100380000020694600F00AF91CBC5DF814FB00006F
:10039000250200002DE9F0410E46044600202062AF
:1003A0002046E168884730B3252805D0D4E90121EB
:1003B0009047206A401CF2E7E16820460027884702
:1003C000050018D0A5F14100192802D820354FF4B6
:1003D00000673246294620462760FFF715FF40B1E7
:1003E000012804D0F61D26F007060836D8E7361D8A
:1003F000D6E72846DAE7206ABDE8F0812DE9F0412A
:100400000646002410687529314616A510D0AFF3B2
:100410000080002802DA404213A507E031688A070D
:1004200001D512A502E0490704D511A5012401E078
:10043000AFF3008000210A2206F1240709E0B0FB97
:10044000F2FCB0FBF2F302FB1C003030785418468B
:10045000491C0028F3D123462A463046BDE8F04126
:1004600000F02AB8000000002D0000002B00000062
:100470002000000010B5431C02E010F8011B71B110
:100480008107FAD14FF0013202C88C1A8C4314EA6A
:10049000C211F9D0C01A0A0603D0C01E10BDC01A7E
:1004A00010BD0A0401D0801E10BD0902FCD0401E00
:1004B00010BD7047704770472DE9F0470D469946CB
:1004C0009246044600F124080168880604D5E069D4
:1004D00021F01001216000E00120A84201DD471B4E
:1004E00000E00027A1697A1902EB0900081AA0614F
:1004F0002078C00602D42046AFF30080002608E032
:10050000D4E901211AF806009047206A401C761CA5
:1005100020624E45F4DB2078C0060AD52046AFF3B2
:10052000008006E0D4E9012130209047206A401C79
:100530002062381EA7F10107F4DC07E0D4E90121AD
:1005400018F805009047206A401C2062281EA5F17B
:100550000105F3DC2046AFF300802078000602D5C9
:100560000220BDE8F0870120FBE7000001694A1C7A
:1005700002610878704700B58FB0CDE901310021E4
:10058000059105497944CDE9031011466846FFF706
:1005900001FF0FB000BD0000E5FFFFFF0A6802F891
:1005A000010B0A607047754600F02CF8AE46050056
:1005B0006946534620F00700854618B020B5FFF77E
:1005C0004BFEBDE820404FF000064FF000074FF013
:1005D00000084FF0000BAC46ACE8C009ACE8C0091D
:1005E000ACE8C009ACE8C00921F007018D467047AE
:1005F00010B50446AFF300802046BDE81040FFF779
:1006000017BE000000487047100000200149182064
:10061000ABBEFEE72600020070470000FEE70000C8
:100620007047000070B581B00022009290F83C2025
:10063000012A03D10221084601B070BD0E680122D3
:100640000A2E80F83C2009D3B2B25200D0F800E064
:1006500012FA86F21E3A0EF10C0305E0D0F800E023
:1006600006EB46020EF110034FF0070C1D680CFA62
:1006700002F4A5431D608D681C6805FA02F222434E
:100680001A60496806290FD801EB81014A1F71469B
:100690001F2351F8345F934025EA03030B60B3B284
:1006A00003FA02F214E000BF01EB81030C29B2B29D
:1006B00004D8714651F8304F233B03E0714651F89E
:1006C0002C4F413B1F259D4024EA05059A400D60B3
:1006D0000B6842F2043CC4F2010C1A43ACF54173BE
:1006E0009E450A603BD1122E06D1DCF8001041F481
:1006F0008001CCF8001032E026F0010110292ED143
:10070000DCF80010102E41F40001CCF8001026D1C6
:1007100040F20801C2F2000109684DF68362C4F29A
:100720001B32A1FB0212910C01EB810149000091E7
:100730000099A1B1009901390091009979B100990E
:1007400001390091009951B1009901390091009946
:1007500029B100990139009100990029EAD10021BD
:1007600080F83C10084601B070BD00000068C06C05
:1007700070470000002804BF0120704710B50446F0
:10078000006C00283ED0206CC00645D4206C41F29D
:1007900002118843023042F204312064C4F20101A4
:1007A000086820F4403008600A6894E809101A4389
:1007B000D4F810E00A604168012321F4807141609F
:1007C0004168C0F6007341EA0E214160416821F0A2
:1007D00040714160416841EA0C014160816821F447
:1007E00000618160E168826811438160A16A82686A
:1007F000994222F070628260826813D122F04051E7
:1008000019E000BF204600F065F80020606484F81D
:100810003C00206CC006B9D50120002184F83C10B2
:1008200010BD00BF11438160816821F0405181609B
:10083000E16A826811438160816821F00201816070
:100840008168227E94F8203041EA4201816041684B
:1008500083B141F40061416041684EF2000221F42D
:1008600060414160616ACFF6FF72436802EB41313B
:10087000194301E021F400614160C16A40F2000CBB
:1008800021F47001C162E2696169CFF6F07CC36A4C
:100890000CEB02521A43C262826822F40072826038
:1008A00094F83020836843EA42228260826822F40E
:1008B00080628260826842EA8121816000206064F7
:1008C000216C012262F301012164002184F83C10B3
:1008D00010BD000080B586B042F200010068C4F28D
:1008E0000101002288420592049201D006B080BD29
:1008F00043F630000092C4F20200436943F480736F
:100900004361436903F480730093009B0092036882
:1009100043F001030360006800F0010000900098BC
:10092000022001900320CDE9020201F5604001A9F7
:1009300000F01AF906B080BD70B5044600680D4697
:100940008268520544BF80685FEAC05038D400F026
:10095000DFF921680A68920749D40646681C3CD032
:10096000DDB90868800721D5086880073FD408688A
:1009700080071BD50868800739D40868800715D51B
:100980000868800733D4086880070FD50868800797
:10099000E7D52CE00868800729D400F0B9F9801B5E
:1009A0002168A842F6D908688007F3D4206C40F08B
:1009B00004002064002084F83C00032070BD00BFC8
:1009C000206C40F020002064002084F83C000120CE
:1009D00070BD00BF0868800709D40868800706D486
:1009E000086880075CBF08685FEA8070F2D56FF026
:1009F00012000860206C40F400702064886810F0D9
:100A0000405F01D1207E08B1002070BDC86A10F49B
:100A1000700F02D088684005F6D4206C20F48070F6
:100A20002064206CC004EFD4206C40F001002064EE
:100A3000002070BD10B581B00021009190F83C10ED
:100A4000012903D1022001B010BD00BF04680121BB
:100A500080F83C10214651F8083FDB0729D10B688C
:100A60004DF6836243F001030B6040F20803C2F2CB
:100A700000031B68C4F21B32A3FB02239A0C02EB97
:100A800042020092009AA2B1009A013A0092009AA2
:100A90007AB1009A013A0092009A52B1009A013A52
:100AA0000092009A2AB1009A013A0092009A002A14
:100AB000EAD10A68036CD2070AD143F0100101643D
:100AC00000F1440101200A681043086034E000BFCF
:100AD00040F2017223EA020202F580720264626847
:100AE000520504D5026C012363F30D320264026CDB
:100AF0004FF0000C0023D20444BF426C22F00603E6
:100B000042F2000E436480F83CC06FF02200C4F251
:100B1000010E2060DEF80403C00609D074450BD135
:100B2000DEF8080010F0405F06D14FF08040CAE7C1
:100B3000086810F0405FF8D0002001B010BD000040
:100B4000B0B5044600F0E4F8054640F20000C2F2F9
:100B500000000078611C18BF044400BF00F0D8F802
:100B6000401BA042FAD3B0BD2DE9F04F82B000F196
:100B70003E4241F2000502F1FF77C4F2020507226E
:100B800043F6004E4FEAB726A84208BF0422C4F23B
:100B9000010E042E38BF4FEAB72201250026002798
:100BA0004FF00008009208E008F101080437B8F19E
:100BB000100F06F1020600F0A7800C6805FA08F98C
:100BC00014EA090FF0D0D1F804B003220BF0030CA3
:100BD000ACF10104B240012C6FEA020A10D882681D
:100BE000CC6802EA0A02B440224382604268CBF336
:100BF000001422EA090204FA08F42243426005E0E4
:100C0000BCF1030F02D14FF0030C20E0C2688C68E6
:100C100002EA0A02B4402243BCF1020FC26016D1BC
:100C20006FF0030202EA58020244D2F820C007F033
:100C30001C050F230C69AB402CEA030304FA05F5ED
:100C40002B431362D1F804B001250BF0030C0268AA
:100C50000CFA06F302EA0A021A431BF4403F026050
:100C6000A2D0002243F644030192C4F202031A68A0
:100C70004FF6084C42F480421A601A68CFF6FF7CA7
:100C800002F480420192019A28F00302724452F861
:100C90000C3007F00C050F24AC40A343009C04FA71
:100CA00005F52B4342F80C30DEF808204B6842EA89
:100CB000090543F60C4CDC0258BF22EA0905CEF8C0
:100CC0000850C4F2010CDCF800209C0242EA09053D
:100CD00058BF22EA0905CCF80050DEF804209C0336
:100CE00042EA090558BF22EA0905CEF80450DEF8A9
:100CF0000020DB0342EA090558BF22EA0905CEF8C5
:100D00000050012550E700BF02B0BDE8F08F0000A1
:100D100040F2FC00C2F200000068704740F20000A0
:100D200040F2FC01C2F20000C2F2000100780A6841
:100D3000104408607047000080B543F60040C4F2DC
:100D40000200016841F400710160016841F48061B2
:100D50000160016841F480710160032000F076F8C1
:100D6000002000F005F800F027F8002080BD00000A
:100D700070B540F20006C2F2000640F20801327877
:100D8000C2F200014FF47A730968B3FBF2F2044631
:100D9000B1FBF2F1084600F031FB0F2C4FF00105DA
:100DA00008D838B94FF0FF3021460022002500F066
:100DB00021F87460284670BD82B0002043F64001DF
:100DC0000190C4F202014A6842F480424A604A68D3
:100DD00002F480420192019A0090086840F080502D
:100DE0000860086800F0805000900098072002B06A
:100DF00000F02CB810B54EF60C5CCEF2000CDCF80E
:100E00000030C3F3022E8EF00704042C28BF042404
:100E1000BEF103034FF0FF3E0EFA04F438BF002387
:100E2000A14399400EFA03F39A43114300F00F02D5
:100E300000F160430901043A03F564436244002869
:100E400048BF02F10C03197010BD00004EF60C51A2
:100E5000CEF200010A684FF6FF031A4060F30A223F
:100E600042F0806040F0FD70086070472DE9F0416D
:100E7000002800F08B8043F60808C4F202080446FC
:100E8000D8F8F8030D4600F00700884207D288F82A
:100E9000F853D8F8F80300F00700A84276D120688C
:100EA000810717D5410705D5D8F8001041F4E05166
:100EB000C8F80010010705D5D8F8001041F46041CA
:100EC000C8F80010D8F80010A26821F0F001114312
:100ED000C8F80010C0073FD1D8F8F80300F00700A9
:100EE000A84207D988F8F853D8F8F80300F00700AB
:100EF000A8424BD12068410707D5D8F80010E26816
:100F000021F4E0511143C8F80010000708D5D8F8C3
:100F10000000216920F4604040EAC100C8F80000E8
:100F200000F07CF8D8F8001041F69222C1F30311CA
:100F3000C0F60002515C40F2080220FA01F140F2D2
:100F40000400C2F200000068C2F200021160FFF764
:100F50000FFF0020BDE8F0816068811E022907D2E2
:100F600058F8081C89015CBF0120BDE8F08111E040
:100F7000012807D158F8081C89035CBF0120BDE88F
:100F8000F08107E058F8081C890703D40120BDE868
:100F9000F08100BFD8F8001021F003010843C8F821
:100FA0000000FFF7B5FE064641F28837D8F800008A
:100FB000616800F00C00B0EB810F8DD0FFF7A8FE48
:100FC000801BB842F2D90320BDE8F08140F208004E
:100FD00043F60801C2F20000C4F202010068096889
:100FE00041F6A222C1F38221C0F60002515CC84042
:100FF0007047000040F2080043F60801C2F200000A
:10100000C4F202010068096841F6A222C1F342312C
:10101000C0F60002515CC8407047000010B543F6AE
:101020000404C4F20204606800F00C0142F20040C3
:101030000829C0F2F40007D0042918BF10BD41F2FE
:101040000020C0F27A0010BD216801F03F02216843
:1010500023684902C3F3881106D4A1FB00010023D1
:10106000FFF70CF907E000BF41F20020C0F27A0060
:101070004843B0FBF2F021680222C1F3014102EBC8
:101080004101B0FBF1F010BD2DE9F04182B0002824
:1010900068D00446007843F60006C007C4F2020692
:1010A0000BD0B06800F00C00042840F09F8030683E
:1010B000800302D56068002854D0207880071AD5B4
:1010C000B06810F00C0F09D0B06800F00C000828D0
:1010D00040F0A6807068400200F1A280306880076E
:1010E00002D5E06801283DD13068216920F0F80080
:1010F00040EAC10030602078000737D420784007EC
:101100004CD4A56955B3B06800F00C00082840F035
:10111000BB80012D26D07068E16900F480028A420C
:1011200020D1216A00F03F028A421BD147F6C071EC
:10113000626A0140B1EB821F14D1A16A4FF6FF73BE
:10114000C903994300F44032A1F580318A4209D1A4
:10115000E16A00F07060B0EB016F03D1002002B0D3
:10116000BDE8F081012002B0BDE8F081606900288F
:1011700040F20000C4F2472076D00121C0F8801E62
:10118000FFF7C6FD054600BF706F8007B6D4FFF7B6
:10119000BFFD401B0228F7D9DDE000BF306C10F026
:1011A00080580AD100200190306C40F080503064AB
:1011B000306C00F080500190019847F20007C4F2B3
:1011C00000073868C00541D4386840F48070386042
:1011D000FFF79EFD054600BF3868C00536D4FFF70F
:1011E00097FD401B0228F7D9B5E000BFB06800F0BA
:1011F0000C00082803D1706840023FF558AF6068C2
:10120000B0F5803F07D0B0F5A02F40F08D8030685A
:1012100040F480203060306840F4803030608DE0F1
:10122000E068002852D00020C4F24720012101606C
:10123000FFF76EFD054600BF306880073FF554AFED
:10124000FFF766FD401B0228F6D984E0A06801285C
:1012500005D005284ED1306F40F004003067306F64
:1012600040F0010030674FE00021C0F8801EFFF71A
:101270004FFD0546706F80077FF540AFFFF748FDD3
:10128000401B0228F6D966E00027C4F24727002059
:101290003866FFF73DFD022D05460BD13068800111
:1012A0005ED5FFF735FD401B02284FF00300F5D94E
:1012B00055E700BF306880017FF550AFFFF728FD8C
:1012C000401B02284FF00300F4D948E70020C4F285
:1012D000472000210160FFF71BFD054630688007AD
:1012E0007FF509AFFFF714FD401B02284FF0030004
:1012F000F4D934E7316F002821F001013167316FF3
:1013000021F0040131674DD0FFF702FD054641F29F
:10131000883700BF306F800756D4FFF7F9FC401BB9
:10132000B842F7D917E000BF3168002821F48031B6
:101330003160316821F4802131604FD0FFF7E8FC43
:10134000054600BF306880033FF5B7AEFFF7E0FC0D
:10135000401B6428F6D9032002B0BDE8F08100BF2D
:1013600004F11C052FCD084340EA8210D9034FF643
:10137000FF729143A1F5803140EA05600843706037
:1013800001203866FFF7C4FC044600BF30688001C6
:101390003FF5E4AEFFF7BCFC001B02284FF0030052
:1013A000F4D9DCE6FFF7B4FC054641F2883700BF0C
:1013B000306F800708D5FFF7ABFC401BB8424FF0F9
:1013C0000300F5D9CBE600BFB8F1000F7FF499AE6A
:1013D000306C20F08050306493E600BFFFF798FC3B
:1013E000054600BF306880037FF567AEFFF790FCCD
:1013F000401B64284FF00300F4D9B0E6411E0020E2
:10140000B0EB116F1CBF012070474EF21002CEF2FC
:10141000000251604EF62351CEF20001F0230B7012
:101420000721906011607047002804BF01207047B9
:1014300010B5044690F83D0028B9002084F83C001F
:10144000204600F021F8242084F83D002068C1687F
:1014500021F40051C160204600F0F8F920680169CC
:1014600021F490410161416921F02A014161C16883
:1014700041F40051C16000202021206484F83D1017
:1014800084F83E1010BD000080B586B0016844F2BB
:101490000040C4F20000814202D006B080BD00BF0F
:1014A000002143F630020191C4F20202136900F5F3
:1014B000DE3043F400331361136903F40033019306
:1014C000019B0191136843F001031360126802F05D
:1014D00001020192019A0C2201920222CDE902211D
:1014E00004910721059101A9FFF73EFB06B080BDDD
:1014F0002DE9F04381B0044690F83D0020280DD13D
:101500000F4600294FF0010000F0DD801646002A4A
:1015100000F0D98094F83C00012803D1022001B0EA
:10152000BDE8F083012084F83C00002020642120E5
:101530001D4684F83D00FFF7EBFBA684E684A16816
:101540000646B1F5805F03D12069002800F01081C4
:10155000B8460027002084F83C00E18C2068002970
:1015600000F0908005F101090DE000BFB8F1000F17
:1015700028D018F8011B4160E18C0139E184E18C2D
:10158000002900F07F8001680906EFD4B9F1000F4F
:101590000AD0FDB1FFF7BCFB801BA8421AD8206817
:1015A00001680906F6D5E1E701680906DED401689D
:1015B00009065CBF01685FEA0161D7D401680906CA
:1015C000F2D5D3E737F8021B4FF000086FF35F2125
:1015D000D1E700BF206850E8030F216820F4D070E5
:1015E00041E80302BAB3206850E8030F216820F4F1
:1015F000D07041E8030272B3206850E8030F2168FD
:1016000020F4D07041E803022AB3206850E8030FA9
:10161000216820F4D07041E80302002ADAD11AE0F0
:10162000206850E8050F216820F0010041E805021C
:10163000DAB1206850E8050F216820F0010041E888
:10164000050292B1206850E8050F216820F00100E2
:1016500041E805024AB1206850E8050F216820F0F2
:10166000010041E80502002ADAD1202084F83D007B
:1016700084F83E00002084F83C00032001B0BDE85F
:10168000F08300BF0168490619D4FDB1691C0DD172
:101690000168490613D4016849065CBF01685FEA26
:1016A00041610CD401684906F2D508E0FFF730FB30
:1016B000801BA8420AD8206800684006F6D5202082
:1016C00084F83D00002001B0BDE8F083206850E8B8
:1016D000030F216820F4D07041E80302E2B32068D0
:1016E00050E8030F216820F4D07041E803029AB358
:1016F000206850E8030F216820F4D07041E803020D
:1017000052B3206850E8030F216820F4D07041E8FC
:101710000302002ADAD11FE0206850E8050F216893
:1017200020F0010041E80502002A9ED0206850E820
:10173000050F216820F0010041E80502002A3FF46E
:1017400094AF206850E8050F216820F0010041E8BF
:101750000502002A3FF489AF206850E8050F216890
:1017600020F0010041E80502002AD5D17DE700BF45
:101770004FF00008EEE60000FEE70000FEE7000084
:10178000FEE700007047000070470000FFF7C6BA90
:1017900010B592B0002443F640000B94CDE9094403
:1017A000CDE907440594CDE90344CDE90144009413
:1017B000C4F202000168022241F080510160006819
:1017C00000F080500090009847F200000094C4F2AE
:1017D0000000016862F38F310160006800F440404E
:1017E000009000980120099010200A900E904FF46C
:1017F000A8700F90042010900720119006A8069260
:10180000CDE90C24FFF740FC20B1EFF3108072B655
:10181000FEE700BF0F20CDE9010401A80021CDE9BA
:1018200003440594FFF722FB20B1EFF3108072B65A
:10183000FEE700BF12B010BD4EF68850CEF2000099
:10184000016841F4700101607047000010B5044662
:101850000068D4E902C22369016921F440511143AF
:101860000161626943EA0C01E3691143C2681943EB
:1018700049F20C639A431143C1604169A26921F4A2
:10188000407141F20043114340F48062C4F201030D
:101890009A42416102D1FFF7ADFB01E0FFF796FBF1
:1018A000E16963681922B1F5004FA0FB020123D161
:1018B0005A00DB0FFEF7E2FC48F21F51C5F2EB11B4
:1018C000A0FB01235A094FF69C73C0F6FF7303F186
:1018D000805302FB0300322303EBC000A0FB010195
:1018E0004FF4F87000EA111000EB0210C1F342113E
:1018F00008442168886010BD9A009B0FFEF7BEFC6B
:1019000048F21F51C5F2EB11A0FB01235A094FF613
:101910009C73C0F6FF7302FB0300322303EB00103D
:10192000A0FB0101F02000EA511000EB0210C1F30E
:10193000431108442168886010BD0000FEE70000E4
:1019400084B044F20044C4F20004FFF7F5F9FFF755
:101950001FFF002543F630000095C4F20200016825
:10196000012241F001010160006804F55C4100F0D2
:1019700001000090009840F27000C2F20000C0F632
:10198000007201260395057680F82050C0E90A25EB
:10199000C66180F83050C0E90015C0E90255C0E9C1
:1019A0000456FEF7E7FE28B1EFF3108072B600BFD1
:1019B000FEE700BF40F27000C2F200006946CDE9C8
:1019C00000660295FEF72EFE20B1EFF3108072B68E
:1019D000FEE700BF40F2B800C2F200004FF4E13170
:1019E00000220C23C0E90041C0E90222C0E904231F
:1019F000C0E90622FFF718FD20B1EFF3108072B6A0
:101A0000FEE700BF40F2700440F2011940F2B8074F
:101A10004FF4FA78C2F20004C0F2100914A56E4621
:101A2000C2F200074FF4FA70FFF78AF82046FFF77A
:101A300001F820464FF0FF31FEF77EFF2046FEF70B
:101A400095FE00FB08F0A0FB0912801A02EB500083
:101A5000C20A30462946FEF789FC3046FEF70AFDE9
:101A600082B2384631464FF0FF33FFF741FDD9E7E8
:101A70002025754320000000F1EE100A4FF6FF719B
:101A8000C0F2C03120EA010040F04070E1EE100ADF
:101A90007047000000000000000001020304060778
:101AA000080900000000010203040000D01A000829
:101AB0000000002010000000D0010008E01A00081B
:101AC00010000020F0060000EC01000800000000FB
:101AD00001000000100000000024F40000000000DD
:040000050800019559
:00000001FF
